{
  "_format": "hh-sol-artifact-1",
  "contractName": "MyTokenMarket",
  "sourceName": "contracts/myTokenMarket.sol",
  "abi": [
    {
      "inputs": [
        {
          "internalType": "address",
          "name": "_token",
          "type": "address"
        },
        {
          "internalType": "address",
          "name": "_router",
          "type": "address"
        },
        {
          "internalType": "address",
          "name": "_weth",
          "type": "address"
        }
      ],
      "stateMutability": "nonpayable",
      "type": "constructor"
    },
    {
      "inputs": [
        {
          "internalType": "uint256",
          "name": "tokenAmount",
          "type": "uint256"
        }
      ],
      "name": "AddLiquidity",
      "outputs": [],
      "stateMutability": "payable",
      "type": "function"
    },
    {
      "inputs": [
        {
          "internalType": "uint256",
          "name": "minTokenAmount",
          "type": "uint256"
        }
      ],
      "name": "buyToken",
      "outputs": [],
      "stateMutability": "payable",
      "type": "function"
    },
    {
      "inputs": [],
      "name": "myToken",
      "outputs": [
        {
          "internalType": "address",
          "name": "",
          "type": "address"
        }
      ],
      "stateMutability": "view",
      "type": "function"
    },
    {
      "inputs": [],
      "name": "router",
      "outputs": [
        {
          "internalType": "address",
          "name": "",
          "type": "address"
        }
      ],
      "stateMutability": "view",
      "type": "function"
    },
    {
      "inputs": [],
      "name": "weth",
      "outputs": [
        {
          "internalType": "address",
          "name": "",
          "type": "address"
        }
      ],
      "stateMutability": "view",
      "type": "function"
    }
  ],
  "bytecode": "0x60806040523480156200001157600080fd5b506040516200145638038062001456833981810160405281019062000037919062000119565b826000806101000a81548173ffffffffffffffffffffffffffffffffffffffff021916908373ffffffffffffffffffffffffffffffffffffffff16021790555081600160006101000a81548173ffffffffffffffffffffffffffffffffffffffff021916908373ffffffffffffffffffffffffffffffffffffffff16021790555080600260006101000a81548173ffffffffffffffffffffffffffffffffffffffff021916908373ffffffffffffffffffffffffffffffffffffffff160217905550505050620001bd565b6000815190506200011381620001a3565b92915050565b6000806000606084860312156200012f57600080fd5b60006200013f8682870162000102565b9350506020620001528682870162000102565b9250506040620001658682870162000102565b9150509250925092565b60006200017c8262000183565b9050919050565b600073ffffffffffffffffffffffffffffffffffffffff82169050919050565b620001ae816200016f565b8114620001ba57600080fd5b50565b61128980620001cd6000396000f3fe60806040526004361061004a5760003560e01c80632d296bf11461004f5780633fc8cef31461006b578063b8fcf93714610096578063f53d9d58146100c1578063f887ea40146100dd575b600080fd5b61006960048036038101906100649190610b02565b610108565b005b34801561007757600080fd5b50610080610366565b60405161008d9190610d62565b60405180910390f35b3480156100a257600080fd5b506100ab61038c565b6040516100b89190610d62565b60405180910390f35b6100db60048036038101906100d69190610b02565b6103b0565b005b3480156100e957600080fd5b506100f2610549565b6040516100ff9190610d62565b60405180910390f35b6000600267ffffffffffffffff81111561014b577f4e487b7100000000000000000000000000000000000000000000000000000000600052604160045260246000fd5b6040519080825280602002602001820160405280156101795781602001602082028036833780820191505090505b509050600260009054906101000a900473ffffffffffffffffffffffffffffffffffffffff16816000815181106101d9577f4e487b7100000000000000000000000000000000000000000000000000000000600052603260045260246000fd5b602002602001019073ffffffffffffffffffffffffffffffffffffffff16908173ffffffffffffffffffffffffffffffffffffffff168152505060008054906101000a900473ffffffffffffffffffffffffffffffffffffffff168160018151811061026e577f4e487b7100000000000000000000000000000000000000000000000000000000600052603260045260246000fd5b602002602001019073ffffffffffffffffffffffffffffffffffffffff16908173ffffffffffffffffffffffffffffffffffffffff1681525050600160009054906101000a900473ffffffffffffffffffffffffffffffffffffffff1673ffffffffffffffffffffffffffffffffffffffff16637ff36ab534848433426040518663ffffffff1660e01b815260040161030a9493929190610f09565b6000604051808303818588803b15801561032357600080fd5b505af1158015610337573d6000803e3d6000fd5b50505050506040513d6000823e3d601f19601f820116820180604052508101906103619190610a98565b505050565b600260009054906101000a900473ffffffffffffffffffffffffffffffffffffffff1681565b60008054906101000a900473ffffffffffffffffffffffffffffffffffffffff1681565b6103fd33308360008054906101000a900473ffffffffffffffffffffffffffffffffffffffff1673ffffffffffffffffffffffffffffffffffffffff1661056f909392919063ffffffff16565b61046a600160009054906101000a900473ffffffffffffffffffffffffffffffffffffffff168260008054906101000a900473ffffffffffffffffffffffffffffffffffffffff1673ffffffffffffffffffffffffffffffffffffffff166105f89092919063ffffffff16565b600160009054906101000a900473ffffffffffffffffffffffffffffffffffffffff1673ffffffffffffffffffffffffffffffffffffffff1663f305d7193460008054906101000a900473ffffffffffffffffffffffffffffffffffffffff168460008033426040518863ffffffff1660e01b81526004016104f196959493929190610e06565b6060604051808303818588803b15801561050a57600080fd5b505af115801561051e573d6000803e3d6000fd5b50505050506040513d601f19601f820116820180604052508101906105439190610b54565b50505050565b600160009054906101000a900473ffffffffffffffffffffffffffffffffffffffff1681565b6105f2846323b872dd60e01b85858560405160240161059093929190610da6565b604051602081830303815290604052907bffffffffffffffffffffffffffffffffffffffffffffffffffffffff19166020820180517bffffffffffffffffffffffffffffffffffffffffffffffffffffffff8381831617835250505050610756565b50505050565b6000811480610691575060008373ffffffffffffffffffffffffffffffffffffffff1663dd62ed3e30856040518363ffffffff1660e01b815260040161063f929190610d7d565b60206040518083038186803b15801561065757600080fd5b505afa15801561066b573d6000803e3d6000fd5b505050506040513d601f19601f8201168201806040525081019061068f9190610b2b565b145b6106d0576040517f08c379a00000000000000000000000000000000000000000000000000000000081526004016106c790610ee9565b60405180910390fd5b6107518363095ea7b360e01b84846040516024016106ef929190610ddd565b604051602081830303815290604052907bffffffffffffffffffffffffffffffffffffffffffffffffffffffff19166020820180517bffffffffffffffffffffffffffffffffffffffffffffffffffffffff8381831617835250505050610756565b505050565b60006107b8826040518060400160405280602081526020017f5361666545524332303a206c6f772d6c6576656c2063616c6c206661696c65648152508573ffffffffffffffffffffffffffffffffffffffff1661081d9092919063ffffffff16565b905060008151111561081857808060200190518101906107d89190610ad9565b610817576040517f08c379a000000000000000000000000000000000000000000000000000000000815260040161080e90610ec9565b60405180910390fd5b5b505050565b606061082c8484600085610835565b90509392505050565b60608247101561087a576040517f08c379a000000000000000000000000000000000000000000000000000000000815260040161087190610e89565b60405180910390fd5b61088385610949565b6108c2576040517f08c379a00000000000000000000000000000000000000000000000000000000081526004016108b990610ea9565b60405180910390fd5b6000808673ffffffffffffffffffffffffffffffffffffffff1685876040516108eb9190610d4b565b60006040518083038185875af1925050503d8060008114610928576040519150601f19603f3d011682016040523d82523d6000602084013e61092d565b606091505b509150915061093d82828661095c565b92505050949350505050565b600080823b905060008111915050919050565b6060831561096c578290506109bc565b60008351111561097f5782518084602001fd5b816040517f08c379a00000000000000000000000000000000000000000000000000000000081526004016109b39190610e67565b60405180910390fd5b9392505050565b60006109d66109d184610f7a565b610f55565b905080838252602082019050828560208602820111156109f557600080fd5b60005b85811015610a255781610a0b8882610a83565b8452602084019350602083019250506001810190506109f8565b5050509392505050565b600082601f830112610a4057600080fd5b8151610a508482602086016109c3565b91505092915050565b600081519050610a6881611225565b92915050565b600081359050610a7d8161123c565b92915050565b600081519050610a928161123c565b92915050565b600060208284031215610aaa57600080fd5b600082015167ffffffffffffffff811115610ac457600080fd5b610ad084828501610a2f565b91505092915050565b600060208284031215610aeb57600080fd5b6000610af984828501610a59565b91505092915050565b600060208284031215610b1457600080fd5b6000610b2284828501610a6e565b91505092915050565b600060208284031215610b3d57600080fd5b6000610b4b84828501610a83565b91505092915050565b600080600060608486031215610b6957600080fd5b6000610b7786828701610a83565b9350506020610b8886828701610a83565b9250506040610b9986828701610a83565b9150509250925092565b6000610baf8383610bbb565b60208301905092915050565b610bc481611011565b82525050565b610bd381611011565b82525050565b6000610be482610fb6565b610bee8185610fe4565b9350610bf983610fa6565b8060005b83811015610c2a578151610c118882610ba3565b9750610c1c83610fd7565b925050600181019050610bfd565b5085935050505092915050565b6000610c4282610fc1565b610c4c8185610ff5565b9350610c5c81856020860161106b565b80840191505092915050565b610c7181611059565b82525050565b6000610c8282610fcc565b610c8c8185611000565b9350610c9c81856020860161106b565b610ca5816110fe565b840191505092915050565b6000610cbd602683611000565b9150610cc88261110f565b604082019050919050565b6000610ce0601d83611000565b9150610ceb8261115e565b602082019050919050565b6000610d03602a83611000565b9150610d0e82611187565b604082019050919050565b6000610d26603683611000565b9150610d31826111d6565b604082019050919050565b610d458161104f565b82525050565b6000610d578284610c37565b915081905092915050565b6000602082019050610d776000830184610bca565b92915050565b6000604082019050610d926000830185610bca565b610d9f6020830184610bca565b9392505050565b6000606082019050610dbb6000830186610bca565b610dc86020830185610bca565b610dd56040830184610d3c565b949350505050565b6000604082019050610df26000830185610bca565b610dff6020830184610d3c565b9392505050565b600060c082019050610e1b6000830189610bca565b610e286020830188610d3c565b610e356040830187610c68565b610e426060830186610c68565b610e4f6080830185610bca565b610e5c60a0830184610d3c565b979650505050505050565b60006020820190508181036000830152610e818184610c77565b905092915050565b60006020820190508181036000830152610ea281610cb0565b9050919050565b60006020820190508181036000830152610ec281610cd3565b9050919050565b60006020820190508181036000830152610ee281610cf6565b9050919050565b60006020820190508181036000830152610f0281610d19565b9050919050565b6000608082019050610f1e6000830187610d3c565b8181036020830152610f308186610bd9565b9050610f3f6040830185610bca565b610f4c6060830184610d3c565b95945050505050565b6000610f5f610f70565b9050610f6b828261109e565b919050565b6000604051905090565b600067ffffffffffffffff821115610f9557610f946110cf565b5b602082029050602081019050919050565b6000819050602082019050919050565b600081519050919050565b600081519050919050565b600081519050919050565b6000602082019050919050565b600082825260208201905092915050565b600081905092915050565b600082825260208201905092915050565b600061101c8261102f565b9050919050565b60008115159050919050565b600073ffffffffffffffffffffffffffffffffffffffff82169050919050565b6000819050919050565b60006110648261104f565b9050919050565b60005b8381101561108957808201518184015260208101905061106e565b83811115611098576000848401525b50505050565b6110a7826110fe565b810181811067ffffffffffffffff821117156110c6576110c56110cf565b5b80604052505050565b7f4e487b7100000000000000000000000000000000000000000000000000000000600052604160045260246000fd5b6000601f19601f8301169050919050565b7f416464726573733a20696e73756666696369656e742062616c616e636520666f60008201527f722063616c6c0000000000000000000000000000000000000000000000000000602082015250565b7f416464726573733a2063616c6c20746f206e6f6e2d636f6e7472616374000000600082015250565b7f5361666545524332303a204552433230206f7065726174696f6e20646964206e60008201527f6f74207375636365656400000000000000000000000000000000000000000000602082015250565b7f5361666545524332303a20617070726f76652066726f6d206e6f6e2d7a65726f60008201527f20746f206e6f6e2d7a65726f20616c6c6f77616e636500000000000000000000602082015250565b61122e81611023565b811461123957600080fd5b50565b6112458161104f565b811461125057600080fd5b5056fea26469706673582212204cfe435a9d6905e5cc5bbdadf508f69f2069ea1dd83fdf4d551b0a380f3cc52a64736f6c63430008040033",
  "linkReferences": {},
  "deployedLinkReferences": {}
}