{
  "_format": "hh-sol-artifact-1",
  "contractName": "myNFT",
  "sourceName": "contracts/myNFT.sol",
  "abi": [
    {
      "inputs": [
        {
          "internalType": "string",
          "name": "_name",
          "type": "string"
        },
        {
          "internalType": "string",
          "name": "_symbol",
          "type": "string"
        }
      ],
      "stateMutability": "nonpayable",
      "type": "constructor"
    },
    {
      "anonymous": false,
      "inputs": [
        {
          "indexed": true,
          "internalType": "address",
          "name": "owner",
          "type": "address"
        },
        {
          "indexed": true,
          "internalType": "address",
          "name": "approved",
          "type": "address"
        },
        {
          "indexed": true,
          "internalType": "uint256",
          "name": "tokenId",
          "type": "uint256"
        }
      ],
      "name": "Approval",
      "type": "event"
    },
    {
      "anonymous": false,
      "inputs": [
        {
          "indexed": true,
          "internalType": "address",
          "name": "owner",
          "type": "address"
        },
        {
          "indexed": true,
          "internalType": "address",
          "name": "operator",
          "type": "address"
        },
        {
          "indexed": false,
          "internalType": "bool",
          "name": "approved",
          "type": "bool"
        }
      ],
      "name": "ApprovalForAll",
      "type": "event"
    },
    {
      "anonymous": false,
      "inputs": [
        {
          "indexed": true,
          "internalType": "address",
          "name": "owner",
          "type": "address"
        },
        {
          "indexed": false,
          "internalType": "uint256",
          "name": "id",
          "type": "uint256"
        },
        {
          "indexed": false,
          "internalType": "uint256",
          "name": "dna",
          "type": "uint256"
        }
      ],
      "name": "NewNFT",
      "type": "event"
    },
    {
      "anonymous": false,
      "inputs": [
        {
          "indexed": true,
          "internalType": "address",
          "name": "previousOwner",
          "type": "address"
        },
        {
          "indexed": true,
          "internalType": "address",
          "name": "newOwner",
          "type": "address"
        }
      ],
      "name": "OwnershipTransferred",
      "type": "event"
    },
    {
      "anonymous": false,
      "inputs": [
        {
          "indexed": true,
          "internalType": "address",
          "name": "from",
          "type": "address"
        },
        {
          "indexed": true,
          "internalType": "address",
          "name": "to",
          "type": "address"
        },
        {
          "indexed": true,
          "internalType": "uint256",
          "name": "tokenId",
          "type": "uint256"
        }
      ],
      "name": "Transfer",
      "type": "event"
    },
    {
      "inputs": [
        {
          "internalType": "address",
          "name": "to",
          "type": "address"
        },
        {
          "internalType": "uint256",
          "name": "tokenId",
          "type": "uint256"
        }
      ],
      "name": "approve",
      "outputs": [],
      "stateMutability": "nonpayable",
      "type": "function"
    },
    {
      "inputs": [
        {
          "internalType": "address",
          "name": "owner",
          "type": "address"
        }
      ],
      "name": "balanceOf",
      "outputs": [
        {
          "internalType": "uint256",
          "name": "",
          "type": "uint256"
        }
      ],
      "stateMutability": "view",
      "type": "function"
    },
    {
      "inputs": [
        {
          "internalType": "string",
          "name": "_name",
          "type": "string"
        }
      ],
      "name": "createRandomNFT",
      "outputs": [],
      "stateMutability": "payable",
      "type": "function"
    },
    {
      "inputs": [
        {
          "internalType": "uint256",
          "name": "tokenId",
          "type": "uint256"
        }
      ],
      "name": "getApproved",
      "outputs": [
        {
          "internalType": "address",
          "name": "",
          "type": "address"
        }
      ],
      "stateMutability": "view",
      "type": "function"
    },
    {
      "inputs": [],
      "name": "getNFTs",
      "outputs": [
        {
          "components": [
            {
              "internalType": "string",
              "name": "name",
              "type": "string"
            },
            {
              "internalType": "uint256",
              "name": "id",
              "type": "uint256"
            },
            {
              "internalType": "uint256",
              "name": "dna",
              "type": "uint256"
            }
          ],
          "internalType": "struct myNFT.NFT[]",
          "name": "",
          "type": "tuple[]"
        }
      ],
      "stateMutability": "view",
      "type": "function"
    },
    {
      "inputs": [
        {
          "internalType": "address",
          "name": "_owner",
          "type": "address"
        }
      ],
      "name": "getOwnerNFTs",
      "outputs": [
        {
          "components": [
            {
              "internalType": "string",
              "name": "name",
              "type": "string"
            },
            {
              "internalType": "uint256",
              "name": "id",
              "type": "uint256"
            },
            {
              "internalType": "uint256",
              "name": "dna",
              "type": "uint256"
            }
          ],
          "internalType": "struct myNFT.NFT[]",
          "name": "",
          "type": "tuple[]"
        }
      ],
      "stateMutability": "view",
      "type": "function"
    },
    {
      "inputs": [
        {
          "internalType": "address",
          "name": "owner",
          "type": "address"
        },
        {
          "internalType": "address",
          "name": "operator",
          "type": "address"
        }
      ],
      "name": "isApprovedForAll",
      "outputs": [
        {
          "internalType": "bool",
          "name": "",
          "type": "bool"
        }
      ],
      "stateMutability": "view",
      "type": "function"
    },
    {
      "inputs": [],
      "name": "name",
      "outputs": [
        {
          "internalType": "string",
          "name": "",
          "type": "string"
        }
      ],
      "stateMutability": "view",
      "type": "function"
    },
    {
      "inputs": [
        {
          "internalType": "uint256",
          "name": "",
          "type": "uint256"
        }
      ],
      "name": "nfts",
      "outputs": [
        {
          "internalType": "string",
          "name": "name",
          "type": "string"
        },
        {
          "internalType": "uint256",
          "name": "id",
          "type": "uint256"
        },
        {
          "internalType": "uint256",
          "name": "dna",
          "type": "uint256"
        }
      ],
      "stateMutability": "view",
      "type": "function"
    },
    {
      "inputs": [],
      "name": "owner",
      "outputs": [
        {
          "internalType": "address",
          "name": "",
          "type": "address"
        }
      ],
      "stateMutability": "view",
      "type": "function"
    },
    {
      "inputs": [
        {
          "internalType": "uint256",
          "name": "tokenId",
          "type": "uint256"
        }
      ],
      "name": "ownerOf",
      "outputs": [
        {
          "internalType": "address",
          "name": "",
          "type": "address"
        }
      ],
      "stateMutability": "view",
      "type": "function"
    },
    {
      "inputs": [],
      "name": "renounceOwnership",
      "outputs": [],
      "stateMutability": "nonpayable",
      "type": "function"
    },
    {
      "inputs": [
        {
          "internalType": "address",
          "name": "from",
          "type": "address"
        },
        {
          "internalType": "address",
          "name": "to",
          "type": "address"
        },
        {
          "internalType": "uint256",
          "name": "tokenId",
          "type": "uint256"
        }
      ],
      "name": "safeTransferFrom",
      "outputs": [],
      "stateMutability": "nonpayable",
      "type": "function"
    },
    {
      "inputs": [
        {
          "internalType": "address",
          "name": "from",
          "type": "address"
        },
        {
          "internalType": "address",
          "name": "to",
          "type": "address"
        },
        {
          "internalType": "uint256",
          "name": "tokenId",
          "type": "uint256"
        },
        {
          "internalType": "bytes",
          "name": "_data",
          "type": "bytes"
        }
      ],
      "name": "safeTransferFrom",
      "outputs": [],
      "stateMutability": "nonpayable",
      "type": "function"
    },
    {
      "inputs": [
        {
          "internalType": "address",
          "name": "operator",
          "type": "address"
        },
        {
          "internalType": "bool",
          "name": "approved",
          "type": "bool"
        }
      ],
      "name": "setApprovalForAll",
      "outputs": [],
      "stateMutability": "nonpayable",
      "type": "function"
    },
    {
      "inputs": [
        {
          "internalType": "bytes4",
          "name": "interfaceId",
          "type": "bytes4"
        }
      ],
      "name": "supportsInterface",
      "outputs": [
        {
          "internalType": "bool",
          "name": "",
          "type": "bool"
        }
      ],
      "stateMutability": "view",
      "type": "function"
    },
    {
      "inputs": [],
      "name": "symbol",
      "outputs": [
        {
          "internalType": "string",
          "name": "",
          "type": "string"
        }
      ],
      "stateMutability": "view",
      "type": "function"
    },
    {
      "inputs": [
        {
          "internalType": "uint256",
          "name": "tokenId",
          "type": "uint256"
        }
      ],
      "name": "tokenURI",
      "outputs": [
        {
          "internalType": "string",
          "name": "",
          "type": "string"
        }
      ],
      "stateMutability": "view",
      "type": "function"
    },
    {
      "inputs": [
        {
          "internalType": "address",
          "name": "from",
          "type": "address"
        },
        {
          "internalType": "address",
          "name": "to",
          "type": "address"
        },
        {
          "internalType": "uint256",
          "name": "tokenId",
          "type": "uint256"
        }
      ],
      "name": "transferFrom",
      "outputs": [],
      "stateMutability": "nonpayable",
      "type": "function"
    },
    {
      "inputs": [
        {
          "internalType": "address",
          "name": "newOwner",
          "type": "address"
        }
      ],
      "name": "transferOwnership",
      "outputs": [],
      "stateMutability": "nonpayable",
      "type": "function"
    },
    {
      "inputs": [],
      "name": "withdraw",
      "outputs": [],
      "stateMutability": "payable",
      "type": "function"
    }
  ],
  "bytecode": "0x60806040523480156200001157600080fd5b5060405162003b4538038062003b45833981810160405281019062000037919062000285565b818181600090805190602001906200005192919062000163565b5080600190805190602001906200006a92919062000163565b5050506200008d620000816200009560201b60201c565b6200009d60201b60201c565b505062000468565b600033905090565b6000600660009054906101000a900473ffffffffffffffffffffffffffffffffffffffff16905081600660006101000a81548173ffffffffffffffffffffffffffffffffffffffff021916908373ffffffffffffffffffffffffffffffffffffffff1602179055508173ffffffffffffffffffffffffffffffffffffffff168173ffffffffffffffffffffffffffffffffffffffff167f8be0079c531659141344cd1fd0a4f28419497f9722a3daafe3b4186f6b6457e060405160405180910390a35050565b82805462000171906200038d565b90600052602060002090601f016020900481019282620001955760008555620001e1565b82601f10620001b057805160ff1916838001178555620001e1565b82800160010185558215620001e1579182015b82811115620001e0578251825591602001919060010190620001c3565b5b509050620001f09190620001f4565b5090565b5b808211156200020f576000816000905550600101620001f5565b5090565b60006200022a620002248462000321565b620002f8565b9050828152602081018484840111156200024357600080fd5b6200025084828562000357565b509392505050565b600082601f8301126200026a57600080fd5b81516200027c84826020860162000213565b91505092915050565b600080604083850312156200029957600080fd5b600083015167ffffffffffffffff811115620002b457600080fd5b620002c28582860162000258565b925050602083015167ffffffffffffffff811115620002e057600080fd5b620002ee8582860162000258565b9150509250929050565b60006200030462000317565b9050620003128282620003c3565b919050565b6000604051905090565b600067ffffffffffffffff8211156200033f576200033e62000428565b5b6200034a8262000457565b9050602081019050919050565b60005b83811015620003775780820151818401526020810190506200035a565b8381111562000387576000848401525b50505050565b60006002820490506001821680620003a657607f821691505b60208210811415620003bd57620003bc620003f9565b5b50919050565b620003ce8262000457565b810181811067ffffffffffffffff82111715620003f057620003ef62000428565b5b80604052505050565b7f4e487b7100000000000000000000000000000000000000000000000000000000600052602260045260246000fd5b7f4e487b7100000000000000000000000000000000000000000000000000000000600052604160045260246000fd5b6000601f19601f8301169050919050565b6136cd80620004786000396000f3fe60806040526004361061012a5760003560e01c806370a08231116100ab578063a22cb4651161006f578063a22cb465146103e7578063b88d4fde14610410578063c87b56dd14610439578063d061250b14610476578063e985e9c514610492578063f2fde38b146104cf5761012a565b806370a0823114610300578063715018a61461033d5780638c017572146103545780638da5cb5b1461039157806395d89b41146103bc5761012a565b806323b872dd116100f257806323b872dd14610228578063265aa621146102515780633ccfd60b1461029057806342842e0e1461029a5780636352211e146102c35761012a565b806301ffc9a71461012f57806306fdde031461016c578063081812fc14610197578063095ea7b3146101d4578063227212f2146101fd575b600080fd5b34801561013b57600080fd5b50610156600480360381019061015191906124d6565b6104f8565b6040516101639190612aba565b60405180910390f35b34801561017857600080fd5b506101816105da565b60405161018e9190612ad5565b60405180910390f35b3480156101a357600080fd5b506101be60048036038101906101b99190612569565b61066c565b6040516101cb9190612a31565b60405180910390f35b3480156101e057600080fd5b506101fb60048036038101906101f6919061249a565b6106f1565b005b34801561020957600080fd5b50610212610809565b60405161021f9190612a98565b60405180910390f35b34801561023457600080fd5b5061024f600480360381019061024a9190612394565b61090e565b005b34801561025d57600080fd5b5061027860048036038101906102739190612569565b61096e565b60405161028793929190612af7565b60405180910390f35b610298610a30565b005b3480156102a657600080fd5b506102c160048036038101906102bc9190612394565b610b02565b005b3480156102cf57600080fd5b506102ea60048036038101906102e59190612569565b610b22565b6040516102f79190612a31565b60405180910390f35b34801561030c57600080fd5b506103276004803603810190610322919061232f565b610bd4565b6040516103349190612d35565b60405180910390f35b34801561034957600080fd5b50610352610c8c565b005b34801561036057600080fd5b5061037b6004803603810190610376919061232f565b610d14565b6040516103889190612a98565b60405180910390f35b34801561039d57600080fd5b506103a6610f53565b6040516103b39190612a31565b60405180910390f35b3480156103c857600080fd5b506103d1610f7d565b6040516103de9190612ad5565b60405180910390f35b3480156103f357600080fd5b5061040e6004803603810190610409919061245e565b61100f565b005b34801561041c57600080fd5b50610437600480360381019061043291906123e3565b611190565b005b34801561044557600080fd5b50610460600480360381019061045b9190612569565b6111f2565b60405161046d9190612ad5565b60405180910390f35b610490600480360381019061048b9190612528565b611299565b005b34801561049e57600080fd5b506104b960048036038101906104b49190612358565b6112a5565b6040516104c69190612aba565b60405180910390f35b3480156104db57600080fd5b506104f660048036038101906104f1919061232f565b611339565b005b60007f80ac58cd000000000000000000000000000000000000000000000000000000007bffffffffffffffffffffffffffffffffffffffffffffffffffffffff1916827bffffffffffffffffffffffffffffffffffffffffffffffffffffffff191614806105c357507f5b5e139f000000000000000000000000000000000000000000000000000000007bffffffffffffffffffffffffffffffffffffffffffffffffffffffff1916827bffffffffffffffffffffffffffffffffffffffffffffffffffffffff1916145b806105d357506105d282611431565b5b9050919050565b6060600080546105e990612ffe565b80601f016020809104026020016040519081016040528092919081815260200182805461061590612ffe565b80156106625780601f1061063757610100808354040283529160200191610662565b820191906000526020600020905b81548152906001019060200180831161064557829003601f168201915b5050505050905090565b60006106778261149b565b6106b6576040517f08c379a00000000000000000000000000000000000000000000000000000000081526004016106ad90612c75565b60405180910390fd5b6004600083815260200190815260200160002060009054906101000a900473ffffffffffffffffffffffffffffffffffffffff169050919050565b60006106fc82610b22565b90508073ffffffffffffffffffffffffffffffffffffffff168373ffffffffffffffffffffffffffffffffffffffff16141561076d576040517f08c379a000000000000000000000000000000000000000000000000000000000815260040161076490612cf5565b60405180910390fd5b8073ffffffffffffffffffffffffffffffffffffffff1661078c611507565b73ffffffffffffffffffffffffffffffffffffffff1614806107bb57506107ba816107b5611507565b6112a5565b5b6107fa576040517f08c379a00000000000000000000000000000000000000000000000000000000081526004016107f190612bf5565b60405180910390fd5b610804838361150f565b505050565b60606008805480602002602001604051908101604052809291908181526020016000905b82821015610905578382906000526020600020906003020160405180606001604052908160008201805461086090612ffe565b80601f016020809104026020016040519081016040528092919081815260200182805461088c90612ffe565b80156108d95780601f106108ae576101008083540402835291602001916108d9565b820191906000526020600020905b8154815290600101906020018083116108bc57829003601f168201915b50505050508152602001600182015481526020016002820154815250508152602001906001019061082d565b50505050905090565b61091f610919611507565b826115c8565b61095e576040517f08c379a000000000000000000000000000000000000000000000000000000000815260040161095590612d15565b60405180910390fd5b6109698383836116a6565b505050565b6008818154811061097e57600080fd5b90600052602060002090600302016000915090508060000180546109a190612ffe565b80601f01602080910402602001604051908101604052809291908181526020018280546109cd90612ffe565b8015610a1a5780601f106109ef57610100808354040283529160200191610a1a565b820191906000526020600020905b8154815290600101906020018083116109fd57829003601f168201915b5050505050908060010154908060020154905083565b610a38611507565b73ffffffffffffffffffffffffffffffffffffffff16610a56610f53565b73ffffffffffffffffffffffffffffffffffffffff1614610aac576040517f08c379a0000000000000000000000000000000000000000000000000000000008152600401610aa390612c95565b60405180910390fd5b6000610ab6610f53565b90508073ffffffffffffffffffffffffffffffffffffffff166108fc479081150290604051600060405180830381858888f19350505050158015610afe573d6000803e3d6000fd5b5050565b610b1d83838360405180602001604052806000815250611190565b505050565b6000806002600084815260200190815260200160002060009054906101000a900473ffffffffffffffffffffffffffffffffffffffff169050600073ffffffffffffffffffffffffffffffffffffffff168173ffffffffffffffffffffffffffffffffffffffff161415610bcb576040517f08c379a0000000000000000000000000000000000000000000000000000000008152600401610bc290612c35565b60405180910390fd5b80915050919050565b60008073ffffffffffffffffffffffffffffffffffffffff168273ffffffffffffffffffffffffffffffffffffffff161415610c45576040517f08c379a0000000000000000000000000000000000000000000000000000000008152600401610c3c90612c15565b60405180910390fd5b600360008373ffffffffffffffffffffffffffffffffffffffff1673ffffffffffffffffffffffffffffffffffffffff168152602001908152602001600020549050919050565b610c94611507565b73ffffffffffffffffffffffffffffffffffffffff16610cb2610f53565b73ffffffffffffffffffffffffffffffffffffffff1614610d08576040517f08c379a0000000000000000000000000000000000000000000000000000000008152600401610cff90612c95565b60405180910390fd5b610d126000611902565b565b60606000610d2183610bd4565b67ffffffffffffffff811115610d60577f4e487b7100000000000000000000000000000000000000000000000000000000600052604160045260246000fd5b604051908082528060200260200182016040528015610d9957816020015b610d86612132565b815260200190600190039081610d7e5790505b5090506000805b600880549050811015610f48578473ffffffffffffffffffffffffffffffffffffffff16610dcd82610b22565b73ffffffffffffffffffffffffffffffffffffffff161415610f355760088181548110610e23577f4e487b7100000000000000000000000000000000000000000000000000000000600052603260045260246000fd5b9060005260206000209060030201604051806060016040529081600082018054610e4c90612ffe565b80601f0160208091040260200160405190810160405280929190818152602001828054610e7890612ffe565b8015610ec55780601f10610e9a57610100808354040283529160200191610ec5565b820191906000526020600020905b815481529060010190602001808311610ea857829003601f168201915b5050505050815260200160018201548152602001600282015481525050838381518110610f1b577f4e487b7100000000000000000000000000000000000000000000000000000000600052603260045260246000fd5b60200260200101819052508180610f3190613061565b9250505b8080610f4090613061565b915050610da0565b508192505050919050565b6000600660009054906101000a900473ffffffffffffffffffffffffffffffffffffffff16905090565b606060018054610f8c90612ffe565b80601f0160208091040260200160405190810160405280929190818152602001828054610fb890612ffe565b80156110055780601f10610fda57610100808354040283529160200191611005565b820191906000526020600020905b815481529060010190602001808311610fe857829003601f168201915b5050505050905090565b611017611507565b73ffffffffffffffffffffffffffffffffffffffff168273ffffffffffffffffffffffffffffffffffffffff161415611085576040517f08c379a000000000000000000000000000000000000000000000000000000000815260040161107c90612bb5565b60405180910390fd5b8060056000611092611507565b73ffffffffffffffffffffffffffffffffffffffff1673ffffffffffffffffffffffffffffffffffffffff16815260200190815260200160002060008473ffffffffffffffffffffffffffffffffffffffff1673ffffffffffffffffffffffffffffffffffffffff16815260200190815260200160002060006101000a81548160ff0219169083151502179055508173ffffffffffffffffffffffffffffffffffffffff1661113f611507565b73ffffffffffffffffffffffffffffffffffffffff167f17307eab39ab6107e8899845ad3d59bd9653f200f220920489ca2b5937696c31836040516111849190612aba565b60405180910390a35050565b6111a161119b611507565b836115c8565b6111e0576040517f08c379a00000000000000000000000000000000000000000000000000000000081526004016111d790612d15565b60405180910390fd5b6111ec848484846119c8565b50505050565b60606111fd8261149b565b61123c576040517f08c379a000000000000000000000000000000000000000000000000000000000815260040161123390612cd5565b60405180910390fd5b6000611246611a24565b905060008151116112665760405180602001604052806000815250611291565b8061127084611a3b565b6040516020016112819291906129e1565b6040516020818303038152906040525b915050919050565b6112a281611be8565b50565b6000600560008473ffffffffffffffffffffffffffffffffffffffff1673ffffffffffffffffffffffffffffffffffffffff16815260200190815260200160002060008373ffffffffffffffffffffffffffffffffffffffff1673ffffffffffffffffffffffffffffffffffffffff16815260200190815260200160002060009054906101000a900460ff16905092915050565b611341611507565b73ffffffffffffffffffffffffffffffffffffffff1661135f610f53565b73ffffffffffffffffffffffffffffffffffffffff16146113b5576040517f08c379a00000000000000000000000000000000000000000000000000000000081526004016113ac90612c95565b60405180910390fd5b600073ffffffffffffffffffffffffffffffffffffffff168173ffffffffffffffffffffffffffffffffffffffff161415611425576040517f08c379a000000000000000000000000000000000000000000000000000000000815260040161141c90612b55565b60405180910390fd5b61142e81611902565b50565b60007f01ffc9a7000000000000000000000000000000000000000000000000000000007bffffffffffffffffffffffffffffffffffffffffffffffffffffffff1916827bffffffffffffffffffffffffffffffffffffffffffffffffffffffff1916149050919050565b60008073ffffffffffffffffffffffffffffffffffffffff166002600084815260200190815260200160002060009054906101000a900473ffffffffffffffffffffffffffffffffffffffff1673ffffffffffffffffffffffffffffffffffffffff1614159050919050565b600033905090565b816004600083815260200190815260200160002060006101000a81548173ffffffffffffffffffffffffffffffffffffffff021916908373ffffffffffffffffffffffffffffffffffffffff160217905550808273ffffffffffffffffffffffffffffffffffffffff1661158283610b22565b73ffffffffffffffffffffffffffffffffffffffff167f8c5be1e5ebec7d5bd14f71427d1e84f3dd0314c0f7b2291e5b200ac8c7c3b92560405160405180910390a45050565b60006115d38261149b565b611612576040517f08c379a000000000000000000000000000000000000000000000000000000000815260040161160990612bd5565b60405180910390fd5b600061161d83610b22565b90508073ffffffffffffffffffffffffffffffffffffffff168473ffffffffffffffffffffffffffffffffffffffff16148061168c57508373ffffffffffffffffffffffffffffffffffffffff166116748461066c565b73ffffffffffffffffffffffffffffffffffffffff16145b8061169d575061169c81856112a5565b5b91505092915050565b8273ffffffffffffffffffffffffffffffffffffffff166116c682610b22565b73ffffffffffffffffffffffffffffffffffffffff161461171c576040517f08c379a000000000000000000000000000000000000000000000000000000000815260040161171390612cb5565b60405180910390fd5b600073ffffffffffffffffffffffffffffffffffffffff168273ffffffffffffffffffffffffffffffffffffffff16141561178c576040517f08c379a000000000000000000000000000000000000000000000000000000000815260040161178390612b95565b60405180910390fd5b611797838383611cf7565b6117a260008261150f565b6001600360008573ffffffffffffffffffffffffffffffffffffffff1673ffffffffffffffffffffffffffffffffffffffff16815260200190815260200160002060008282546117f29190612f14565b925050819055506001600360008473ffffffffffffffffffffffffffffffffffffffff1673ffffffffffffffffffffffffffffffffffffffff16815260200190815260200160002060008282546118499190612e8d565b92505081905550816002600083815260200190815260200160002060006101000a81548173ffffffffffffffffffffffffffffffffffffffff021916908373ffffffffffffffffffffffffffffffffffffffff160217905550808273ffffffffffffffffffffffffffffffffffffffff168473ffffffffffffffffffffffffffffffffffffffff167fddf252ad1be2c89b69c2b068fc378daa952ba7f163c4a11628f55a4df523b3ef60405160405180910390a4505050565b6000600660009054906101000a900473ffffffffffffffffffffffffffffffffffffffff16905081600660006101000a81548173ffffffffffffffffffffffffffffffffffffffff021916908373ffffffffffffffffffffffffffffffffffffffff1602179055508173ffffffffffffffffffffffffffffffffffffffff168173ffffffffffffffffffffffffffffffffffffffff167f8be0079c531659141344cd1fd0a4f28419497f9722a3daafe3b4186f6b6457e060405160405180910390a35050565b6119d38484846116a6565b6119df84848484611cfc565b611a1e576040517f08c379a0000000000000000000000000000000000000000000000000000000008152600401611a1590612b35565b60405180910390fd5b50505050565b606060405180602001604052806000815250905090565b60606000821415611a83576040518060400160405280600181526020017f30000000000000000000000000000000000000000000000000000000000000008152509050611be3565b600082905060005b60008214611ab5578080611a9e90613061565b915050600a82611aae9190612ee3565b9150611a8b565b60008167ffffffffffffffff811115611af7577f4e487b7100000000000000000000000000000000000000000000000000000000600052604160045260246000fd5b6040519080825280601f01601f191660200182016040528015611b295781602001600182028036833780820191505090505b5090505b60008514611bdc57600182611b429190612f14565b9150600a85611b5191906130d8565b6030611b5d9190612e8d565b60f81b818381518110611b99577f4e487b7100000000000000000000000000000000000000000000000000000000600052603260045260246000fd5b60200101907effffffffffffffffffffffffffffffffffffffffffffffffffffffffffffff1916908160001a905350600a85611bd59190612ee3565b9450611b2d565b8093505050505b919050565b6000611bfa662386f26fc10000611e93565b905060006040518060600160405280848152602001600754815260200183815250905060088190806001815401808255809150506001900390600052602060002090600302016000909190919091506000820151816000019080519060200190611c65929190612153565b5060208201518160010155604082015181600201555050611c8833600754611ed8565b3373ffffffffffffffffffffffffffffffffffffffff167f4526a9071abb39bf5caeb5a6b4171428211c294711945a01956a56f2cde1590860075484604051611cd2929190612d50565b60405180910390a260076000815480929190611ced90613061565b9190505550505050565b505050565b6000611d1d8473ffffffffffffffffffffffffffffffffffffffff16611ef6565b15611e86578373ffffffffffffffffffffffffffffffffffffffff1663150b7a02611d46611507565b8786866040518563ffffffff1660e01b8152600401611d689493929190612a4c565b602060405180830381600087803b158015611d8257600080fd5b505af1925050508015611db357506040513d601f19601f82011682018060405250810190611db091906124ff565b60015b611e36573d8060008114611de3576040519150601f19603f3d011682016040523d82523d6000602084013e611de8565b606091505b50600081511415611e2e576040517f08c379a0000000000000000000000000000000000000000000000000000000008152600401611e2590612b35565b60405180910390fd5b805181602001fd5b63150b7a0260e01b7bffffffffffffffffffffffffffffffffffffffffffffffffffffffff1916817bffffffffffffffffffffffffffffffffffffffffffffffffffffffff191614915050611e8b565b600190505b949350505050565b6000804233604051602001611ea9929190612a05565b6040516020818303038152906040528051906020012060001c90508281611ed091906130d8565b915050919050565b611ef2828260405180602001604052806000815250611f09565b5050565b600080823b905060008111915050919050565b611f138383611f64565b611f206000848484611cfc565b611f5f576040517f08c379a0000000000000000000000000000000000000000000000000000000008152600401611f5690612b35565b60405180910390fd5b505050565b600073ffffffffffffffffffffffffffffffffffffffff168273ffffffffffffffffffffffffffffffffffffffff161415611fd4576040517f08c379a0000000000000000000000000000000000000000000000000000000008152600401611fcb90612c55565b60405180910390fd5b611fdd8161149b565b1561201d576040517f08c379a000000000000000000000000000000000000000000000000000000000815260040161201490612b75565b60405180910390fd5b61202960008383611cf7565b6001600360008473ffffffffffffffffffffffffffffffffffffffff1673ffffffffffffffffffffffffffffffffffffffff16815260200190815260200160002060008282546120799190612e8d565b92505081905550816002600083815260200190815260200160002060006101000a81548173ffffffffffffffffffffffffffffffffffffffff021916908373ffffffffffffffffffffffffffffffffffffffff160217905550808273ffffffffffffffffffffffffffffffffffffffff16600073ffffffffffffffffffffffffffffffffffffffff167fddf252ad1be2c89b69c2b068fc378daa952ba7f163c4a11628f55a4df523b3ef60405160405180910390a45050565b60405180606001604052806060815260200160008152602001600081525090565b82805461215f90612ffe565b90600052602060002090601f01602090048101928261218157600085556121c8565b82601f1061219a57805160ff19168380011785556121c8565b828001600101855582156121c8579182015b828111156121c75782518255916020019190600101906121ac565b5b5090506121d591906121d9565b5090565b5b808211156121f25760008160009055506001016121da565b5090565b600061220961220484612d9e565b612d79565b90508281526020810184848401111561222157600080fd5b61222c848285612fbc565b509392505050565b600061224761224284612dcf565b612d79565b90508281526020810184848401111561225f57600080fd5b61226a848285612fbc565b509392505050565b6000813590506122818161363b565b92915050565b60008135905061229681613652565b92915050565b6000813590506122ab81613669565b92915050565b6000815190506122c081613669565b92915050565b600082601f8301126122d757600080fd5b81356122e78482602086016121f6565b91505092915050565b600082601f83011261230157600080fd5b8135612311848260208601612234565b91505092915050565b60008135905061232981613680565b92915050565b60006020828403121561234157600080fd5b600061234f84828501612272565b91505092915050565b6000806040838503121561236b57600080fd5b600061237985828601612272565b925050602061238a85828601612272565b9150509250929050565b6000806000606084860312156123a957600080fd5b60006123b786828701612272565b93505060206123c886828701612272565b92505060406123d98682870161231a565b9150509250925092565b600080600080608085870312156123f957600080fd5b600061240787828801612272565b945050602061241887828801612272565b93505060406124298782880161231a565b925050606085013567ffffffffffffffff81111561244657600080fd5b612452878288016122c6565b91505092959194509250565b6000806040838503121561247157600080fd5b600061247f85828601612272565b925050602061249085828601612287565b9150509250929050565b600080604083850312156124ad57600080fd5b60006124bb85828601612272565b92505060206124cc8582860161231a565b9150509250929050565b6000602082840312156124e857600080fd5b60006124f68482850161229c565b91505092915050565b60006020828403121561251157600080fd5b600061251f848285016122b1565b91505092915050565b60006020828403121561253a57600080fd5b600082013567ffffffffffffffff81111561255457600080fd5b612560848285016122f0565b91505092915050565b60006020828403121561257b57600080fd5b60006125898482850161231a565b91505092915050565b600061259e838361295c565b905092915050565b6125af81612f48565b82525050565b6125c66125c182612f48565b6130aa565b82525050565b60006125d782612e10565b6125e18185612e3e565b9350836020820285016125f385612e00565b8060005b8581101561262f57848403895281516126108582612592565b945061261b83612e31565b925060208a019950506001810190506125f7565b50829750879550505050505092915050565b61264a81612f5a565b82525050565b600061265b82612e1b565b6126658185612e4f565b9350612675818560208601612fcb565b61267e816131c5565b840191505092915050565b600061269482612e26565b61269e8185612e60565b93506126ae818560208601612fcb565b6126b7816131c5565b840191505092915050565b60006126cd82612e26565b6126d78185612e71565b93506126e7818560208601612fcb565b6126f0816131c5565b840191505092915050565b600061270682612e26565b6127108185612e82565b9350612720818560208601612fcb565b80840191505092915050565b6000612739603283612e71565b9150612744826131e3565b604082019050919050565b600061275c602683612e71565b915061276782613232565b604082019050919050565b600061277f601c83612e71565b915061278a82613281565b602082019050919050565b60006127a2602483612e71565b91506127ad826132aa565b604082019050919050565b60006127c5601983612e71565b91506127d0826132f9565b602082019050919050565b60006127e8602c83612e71565b91506127f382613322565b604082019050919050565b600061280b603883612e71565b915061281682613371565b604082019050919050565b600061282e602a83612e71565b9150612839826133c0565b604082019050919050565b6000612851602983612e71565b915061285c8261340f565b604082019050919050565b6000612874602083612e71565b915061287f8261345e565b602082019050919050565b6000612897602c83612e71565b91506128a282613487565b604082019050919050565b60006128ba602083612e71565b91506128c5826134d6565b602082019050919050565b60006128dd602983612e71565b91506128e8826134ff565b604082019050919050565b6000612900602f83612e71565b915061290b8261354e565b604082019050919050565b6000612923602183612e71565b915061292e8261359d565b604082019050919050565b6000612946603183612e71565b9150612951826135ec565b604082019050919050565b600060608301600083015184820360008601526129798282612689565b915050602083015161298e60208601826129ac565b5060408301516129a160408601826129ac565b508091505092915050565b6129b581612fb2565b82525050565b6129c481612fb2565b82525050565b6129db6129d682612fb2565b6130ce565b82525050565b60006129ed82856126fb565b91506129f982846126fb565b91508190509392505050565b6000612a1182856129ca565b602082019150612a2182846125b5565b6014820191508190509392505050565b6000602082019050612a4660008301846125a6565b92915050565b6000608082019050612a6160008301876125a6565b612a6e60208301866125a6565b612a7b60408301856129bb565b8181036060830152612a8d8184612650565b905095945050505050565b60006020820190508181036000830152612ab281846125cc565b905092915050565b6000602082019050612acf6000830184612641565b92915050565b60006020820190508181036000830152612aef81846126c2565b905092915050565b60006060820190508181036000830152612b1181866126c2565b9050612b2060208301856129bb565b612b2d60408301846129bb565b949350505050565b60006020820190508181036000830152612b4e8161272c565b9050919050565b60006020820190508181036000830152612b6e8161274f565b9050919050565b60006020820190508181036000830152612b8e81612772565b9050919050565b60006020820190508181036000830152612bae81612795565b9050919050565b60006020820190508181036000830152612bce816127b8565b9050919050565b60006020820190508181036000830152612bee816127db565b9050919050565b60006020820190508181036000830152612c0e816127fe565b9050919050565b60006020820190508181036000830152612c2e81612821565b9050919050565b60006020820190508181036000830152612c4e81612844565b9050919050565b60006020820190508181036000830152612c6e81612867565b9050919050565b60006020820190508181036000830152612c8e8161288a565b9050919050565b60006020820190508181036000830152612cae816128ad565b9050919050565b60006020820190508181036000830152612cce816128d0565b9050919050565b60006020820190508181036000830152612cee816128f3565b9050919050565b60006020820190508181036000830152612d0e81612916565b9050919050565b60006020820190508181036000830152612d2e81612939565b9050919050565b6000602082019050612d4a60008301846129bb565b92915050565b6000604082019050612d6560008301856129bb565b612d7260208301846129bb565b9392505050565b6000612d83612d94565b9050612d8f8282613030565b919050565b6000604051905090565b600067ffffffffffffffff821115612db957612db8613196565b5b612dc2826131c5565b9050602081019050919050565b600067ffffffffffffffff821115612dea57612de9613196565b5b612df3826131c5565b9050602081019050919050565b6000819050602082019050919050565b600081519050919050565b600081519050919050565b600081519050919050565b6000602082019050919050565b600082825260208201905092915050565b600082825260208201905092915050565b600082825260208201905092915050565b600082825260208201905092915050565b600081905092915050565b6000612e9882612fb2565b9150612ea383612fb2565b9250827fffffffffffffffffffffffffffffffffffffffffffffffffffffffffffffffff03821115612ed857612ed7613109565b5b828201905092915050565b6000612eee82612fb2565b9150612ef983612fb2565b925082612f0957612f08613138565b5b828204905092915050565b6000612f1f82612fb2565b9150612f2a83612fb2565b925082821015612f3d57612f3c613109565b5b828203905092915050565b6000612f5382612f92565b9050919050565b60008115159050919050565b60007fffffffff0000000000000000000000000000000000000000000000000000000082169050919050565b600073ffffffffffffffffffffffffffffffffffffffff82169050919050565b6000819050919050565b82818337600083830152505050565b60005b83811015612fe9578082015181840152602081019050612fce565b83811115612ff8576000848401525b50505050565b6000600282049050600182168061301657607f821691505b6020821081141561302a57613029613167565b5b50919050565b613039826131c5565b810181811067ffffffffffffffff8211171561305857613057613196565b5b80604052505050565b600061306c82612fb2565b91507fffffffffffffffffffffffffffffffffffffffffffffffffffffffffffffffff82141561309f5761309e613109565b5b600182019050919050565b60006130b5826130bc565b9050919050565b60006130c7826131d6565b9050919050565b6000819050919050565b60006130e382612fb2565b91506130ee83612fb2565b9250826130fe576130fd613138565b5b828206905092915050565b7f4e487b7100000000000000000000000000000000000000000000000000000000600052601160045260246000fd5b7f4e487b7100000000000000000000000000000000000000000000000000000000600052601260045260246000fd5b7f4e487b7100000000000000000000000000000000000000000000000000000000600052602260045260246000fd5b7f4e487b7100000000000000000000000000000000000000000000000000000000600052604160045260246000fd5b6000601f19601f8301169050919050565b60008160601b9050919050565b7f4552433732313a207472616e7366657220746f206e6f6e20455243373231526560008201527f63656976657220696d706c656d656e7465720000000000000000000000000000602082015250565b7f4f776e61626c653a206e6577206f776e657220697320746865207a65726f206160008201527f6464726573730000000000000000000000000000000000000000000000000000602082015250565b7f4552433732313a20746f6b656e20616c7265616479206d696e74656400000000600082015250565b7f4552433732313a207472616e7366657220746f20746865207a65726f2061646460008201527f7265737300000000000000000000000000000000000000000000000000000000602082015250565b7f4552433732313a20617070726f766520746f2063616c6c657200000000000000600082015250565b7f4552433732313a206f70657261746f7220717565727920666f72206e6f6e657860008201527f697374656e7420746f6b656e0000000000000000000000000000000000000000602082015250565b7f4552433732313a20617070726f76652063616c6c6572206973206e6f74206f7760008201527f6e6572206e6f7220617070726f76656420666f7220616c6c0000000000000000602082015250565b7f4552433732313a2062616c616e636520717565727920666f7220746865207a6560008201527f726f206164647265737300000000000000000000000000000000000000000000602082015250565b7f4552433732313a206f776e657220717565727920666f72206e6f6e657869737460008201527f656e7420746f6b656e0000000000000000000000000000000000000000000000602082015250565b7f4552433732313a206d696e7420746f20746865207a65726f2061646472657373600082015250565b7f4552433732313a20617070726f76656420717565727920666f72206e6f6e657860008201527f697374656e7420746f6b656e0000000000000000000000000000000000000000602082015250565b7f4f776e61626c653a2063616c6c6572206973206e6f7420746865206f776e6572600082015250565b7f4552433732313a207472616e73666572206f6620746f6b656e2074686174206960008201527f73206e6f74206f776e0000000000000000000000000000000000000000000000602082015250565b7f4552433732314d657461646174613a2055524920717565727920666f72206e6f60008201527f6e6578697374656e7420746f6b656e0000000000000000000000000000000000602082015250565b7f4552433732313a20617070726f76616c20746f2063757272656e74206f776e6560008201527f7200000000000000000000000000000000000000000000000000000000000000602082015250565b7f4552433732313a207472616e736665722063616c6c6572206973206e6f74206f60008201527f776e6572206e6f7220617070726f766564000000000000000000000000000000602082015250565b61364481612f48565b811461364f57600080fd5b50565b61365b81612f5a565b811461366657600080fd5b50565b61367281612f66565b811461367d57600080fd5b50565b61368981612fb2565b811461369457600080fd5b5056fea2646970667358221220d1c8c6f85178bce209ef94badc43db8ddabd68c2c3e126ff5fadb54c034c3f6864736f6c63430008040033",
  "linkReferences": {},
  "deployedLinkReferences": {}
}