{
  "_format": "hh-sol-artifact-1",
  "contractName": "Vault",
  "sourceName": "contracts/Vault.sol",
  "abi": [
    {
      "inputs": [
        {
          "internalType": "address",
          "name": "_token",
          "type": "address"
        }
      ],
      "stateMutability": "nonpayable",
      "type": "constructor"
    },
    {
      "inputs": [
        {
          "internalType": "address",
          "name": "user",
          "type": "address"
        },
        {
          "internalType": "uint256",
          "name": "amount",
          "type": "uint256"
        }
      ],
      "name": "deposit",
      "outputs": [],
      "stateMutability": "nonpayable",
      "type": "function"
    },
    {
      "inputs": [
        {
          "internalType": "address",
          "name": "",
          "type": "address"
        }
      ],
      "name": "deposited",
      "outputs": [
        {
          "internalType": "uint256",
          "name": "",
          "type": "uint256"
        }
      ],
      "stateMutability": "view",
      "type": "function"
    },
    {
      "inputs": [],
      "name": "token",
      "outputs": [
        {
          "internalType": "address",
          "name": "",
          "type": "address"
        }
      ],
      "stateMutability": "view",
      "type": "function"
    },
    {
      "inputs": [
        {
          "internalType": "address",
          "name": "user",
          "type": "address"
        },
        {
          "internalType": "uint256",
          "name": "amount",
          "type": "uint256"
        }
      ],
      "name": "withdraw",
      "outputs": [],
      "stateMutability": "nonpayable",
      "type": "function"
    }
  ],
  "bytecode": "0x608060405234801561001057600080fd5b506040516109873803806109878339818101604052810190610032919061008e565b80600160006101000a81548173ffffffffffffffffffffffffffffffffffffffff021916908373ffffffffffffffffffffffffffffffffffffffff16021790555050610100565b600081519050610088816100e9565b92915050565b6000602082840312156100a057600080fd5b60006100ae84828501610079565b91505092915050565b60006100c2826100c9565b9050919050565b600073ffffffffffffffffffffffffffffffffffffffff82169050919050565b6100f2816100b7565b81146100fd57600080fd5b50565b6108788061010f6000396000f3fe608060405234801561001057600080fd5b506004361061004c5760003560e01c806347e7ef2414610051578063cb13cddb1461006d578063f3fef3a31461009d578063fc0c546a146100b9575b600080fd5b61006b6004803603810190610066919061048e565b6100d7565b005b61008760048036038101906100829190610465565b610220565b6040516100949190610655565b60405180910390f35b6100b760048036038101906100b2919061048e565b610238565b005b6100c1610400565b6040516100ce919061057a565b60405180910390f35b600160009054906101000a900473ffffffffffffffffffffffffffffffffffffffff1673ffffffffffffffffffffffffffffffffffffffff166323b872dd3330846040518463ffffffff1660e01b815260040161013693929190610595565b602060405180830381600087803b15801561015057600080fd5b505af1158015610164573d6000803e3d6000fd5b505050506040513d601f19601f8201168201806040525081019061018891906104ca565b6101c7576040517f08c379a00000000000000000000000000000000000000000000000000000000081526004016101be90610635565b60405180910390fd5b806000808473ffffffffffffffffffffffffffffffffffffffff1673ffffffffffffffffffffffffffffffffffffffff16815260200190815260200160002060008282546102159190610681565b925050819055505050565b60006020528060005260406000206000915090505481565b806000808473ffffffffffffffffffffffffffffffffffffffff1673ffffffffffffffffffffffffffffffffffffffff1681526020019081526020016000205410156102b9576040517f08c379a00000000000000000000000000000000000000000000000000000000081526004016102b090610615565b60405180910390fd5b600160009054906101000a900473ffffffffffffffffffffffffffffffffffffffff1673ffffffffffffffffffffffffffffffffffffffff1663a9059cbb83836040518363ffffffff1660e01b81526004016103169291906105cc565b602060405180830381600087803b15801561033057600080fd5b505af1158015610344573d6000803e3d6000fd5b505050506040513d601f19601f8201168201806040525081019061036891906104ca565b6103a7576040517f08c379a000000000000000000000000000000000000000000000000000000000815260040161039e906105f5565b60405180910390fd5b806000808473ffffffffffffffffffffffffffffffffffffffff1673ffffffffffffffffffffffffffffffffffffffff16815260200190815260200160002060008282546103f591906106d7565b925050819055505050565b600160009054906101000a900473ffffffffffffffffffffffffffffffffffffffff1681565b600081359050610435816107fd565b92915050565b60008151905061044a81610814565b92915050565b60008135905061045f8161082b565b92915050565b60006020828403121561047757600080fd5b600061048584828501610426565b91505092915050565b600080604083850312156104a157600080fd5b60006104af85828601610426565b92505060206104c085828601610450565b9150509250929050565b6000602082840312156104dc57600080fd5b60006104ea8482850161043b565b91505092915050565b6104fc8161070b565b82525050565b600061050f601d83610670565b915061051a82610782565b602082019050919050565b6000610532601283610670565b915061053d826107ab565b602082019050919050565b6000610555601383610670565b9150610560826107d4565b602082019050919050565b61057481610749565b82525050565b600060208201905061058f60008301846104f3565b92915050565b60006060820190506105aa60008301866104f3565b6105b760208301856104f3565b6105c4604083018461056b565b949350505050565b60006040820190506105e160008301856104f3565b6105ee602083018461056b565b9392505050565b6000602082019050818103600083015261060e81610502565b9050919050565b6000602082019050818103600083015261062e81610525565b9050919050565b6000602082019050818103600083015261064e81610548565b9050919050565b600060208201905061066a600083018461056b565b92915050565b600082825260208201905092915050565b600061068c82610749565b915061069783610749565b9250827fffffffffffffffffffffffffffffffffffffffffffffffffffffffffffffffff038211156106cc576106cb610753565b5b828201905092915050565b60006106e282610749565b91506106ed83610749565b925082821015610700576106ff610753565b5b828203905092915050565b600061071682610729565b9050919050565b60008115159050919050565b600073ffffffffffffffffffffffffffffffffffffffff82169050919050565b6000819050919050565b7f4e487b7100000000000000000000000000000000000000000000000000000000600052601160045260246000fd5b7f5472616e736665722066726f6d2065727220696e207769746864726177000000600082015250565b7f696e7375666669656e742062616c616e63650000000000000000000000000000600082015250565b7f5472616e736665722066726f6d206572726f7200000000000000000000000000600082015250565b6108068161070b565b811461081157600080fd5b50565b61081d8161071d565b811461082857600080fd5b50565b61083481610749565b811461083f57600080fd5b5056fea2646970667358221220851e295aaf02c6b930e54dc7da9d488084e902ec4323809227fd41dafc5ec8e564736f6c63430008040033",
  "linkReferences": {},
  "deployedLinkReferences": {}
}