{
  "contractName": "Counter",
  "abi": [
    {
      "inputs": [],
      "stateMutability": "nonpayable",
      "type": "constructor"
    },
    {
      "inputs": [],
      "name": "counter",
      "outputs": [
        {
          "internalType": "uint256",
          "name": "",
          "type": "uint256"
        }
      ],
      "stateMutability": "view",
      "type": "function",
      "constant": true
    },
    {
      "inputs": [],
      "name": "count",
      "outputs": [],
      "stateMutability": "nonpayable",
      "type": "function"
    }
  ],
  "bytecode": "0x608060405234801561001057600080fd5b506000805560c5806100236000396000f3fe6080604052348015600f57600080fd5b506004361060325760003560e01c806306661abd14603757806361bc221a14603f575b600080fd5b603d6059565b005b604760005481565b60405190815260200160405180910390f35b6000546065906001606a565b600055565b60008219821115608a57634e487b7160e01b600052601160045260246000fd5b50019056fea26469706673582212206b9bb68e0f54cfaa6ce6be1493fcf3c9821102454d758d363873da75676cb13264736f6c634300080c0033",
  "immutableReferences": {},
  "source": "// SPDX-License-Identifier: SimPL-2.0\n\npragma solidity ^0.8.0;\n\ncontract Counter {\n\n    uint public counter;\n\n    constructor () {\n        counter = 0;\n    }\n\n    function count() public {\n        counter = counter + 1;\n    }\n}",
  "sourcePath": "F:\\Goworks\\counter\\contracts\\Counter.sol",
  "compiler": {
    "name": "solc",
    "version": "0.8.12+commit.f00d7308.Emscripten.clang"
  },
  "schemaVersion": "3.4.4",
  "updatedAt": "2022-02-24T05:50:52.637Z",
  "networkType": "ethereum",
  "devdoc": {
    "kind": "dev",
    "methods": {},
    "version": 1
  },
  "userdoc": {
    "kind": "user",
    "methods": {},
    "version": 1
  }
}